{
  "contractName": "IoTCamera",
  "abi": [
    {
      "constant": true,
      "inputs": [],
      "name": "name",
      "outputs": [
        {
          "name": "",
          "type": "string"
        }
      ],
      "payable": false,
      "stateMutability": "view",
      "type": "function"
    },
    {
      "constant": true,
      "inputs": [],
      "name": "coinAddress",
      "outputs": [
        {
          "name": "",
          "type": "address"
        }
      ],
      "payable": false,
      "stateMutability": "view",
      "type": "function"
    },
    {
      "inputs": [
        {
          "name": "iotCoin",
          "type": "address"
        }
      ],
      "payable": false,
      "stateMutability": "nonpayable",
      "type": "constructor"
    },
    {
      "anonymous": false,
      "inputs": [
        {
          "indexed": true,
          "name": "_from",
          "type": "address"
        },
        {
          "indexed": true,
          "name": "_to",
          "type": "address"
        },
        {
          "indexed": false,
          "name": "_port",
          "type": "uint16"
        }
      ],
      "name": "OpenServer",
      "type": "event"
    },
    {
      "anonymous": false,
      "inputs": [
        {
          "indexed": true,
          "name": "_from",
          "type": "address"
        },
        {
          "indexed": true,
          "name": "_to",
          "type": "address"
        },
        {
          "indexed": false,
          "name": "_ip",
          "type": "string"
        }
      ],
      "name": "OpenStream",
      "type": "event"
    },
    {
      "constant": true,
      "inputs": [],
      "name": "isAvailable",
      "outputs": [
        {
          "name": "",
          "type": "bool"
        }
      ],
      "payable": false,
      "stateMutability": "view",
      "type": "function"
    },
    {
      "constant": false,
      "inputs": [
        {
          "name": "_to",
          "type": "address"
        },
        {
          "name": "_port",
          "type": "uint16"
        }
      ],
      "name": "openServer",
      "outputs": [],
      "payable": false,
      "stateMutability": "nonpayable",
      "type": "function"
    },
    {
      "constant": false,
      "inputs": [
        {
          "name": "_to",
          "type": "address"
        },
        {
          "name": "_ip",
          "type": "string"
        }
      ],
      "name": "openStream",
      "outputs": [],
      "payable": false,
      "stateMutability": "nonpayable",
      "type": "function"
    },
    {
      "constant": false,
      "inputs": [],
      "name": "closeServer",
      "outputs": [],
      "payable": false,
      "stateMutability": "nonpayable",
      "type": "function"
    },
    {
      "constant": true,
      "inputs": [],
      "name": "getServerAddress",
      "outputs": [
        {
          "name": "",
          "type": "address"
        }
      ],
      "payable": false,
      "stateMutability": "view",
      "type": "function"
    },
    {
      "constant": true,
      "inputs": [],
      "name": "getCoinAddress",
      "outputs": [
        {
          "name": "",
          "type": "address"
        }
      ],
      "payable": false,
      "stateMutability": "view",
      "type": "function"
    }
  ],
  "bytecode": "0x60606040526040805190810160405280600981526020017f496f5443616d65726100000000000000000000000000000000000000000000008152506000908051906020019061004f929190610131565b506000600160146101000a81548160ff021916908315150217905550341561007657600080fd5b60405160208061091e8339810160405280805190602001909190505060003373ffffffffffffffffffffffffffffffffffffffff16141515156100b857600080fd5b60018060146101000a81548160ff02191690831515021790555080600160006101000a81548173ffffffffffffffffffffffffffffffffffffffff021916908373ffffffffffffffffffffffffffffffffffffffff160217905550600160149054906101000a900460ff16151561012b57fe5b506101d6565b828054600181600116156101000203166002900490600052602060002090601f016020900481019282601f1061017257805160ff19168380011785556101a0565b828001600101855582156101a0579182015b8281111561019f578251825591602001919060010190610184565b5b5090506101ad91906101b1565b5090565b6101d391905b808211156101cf5760008160009055506001016101b7565b5090565b90565b610739806101e56000396000f30060606040526004361061008e576000357c0100000000000000000000000000000000000000000000000000000000900463ffffffff16806306fdde031461009357806340043068146101215780636ba8de8f1461017657806377890e23146101bc578063856c71dd14610238578063c7acae2e14610265578063fdc61dd1146102ba578063fedb4dc61461030f575b600080fd5b341561009e57600080fd5b6100a6610324565b6040518080602001828103825283818151815260200191508051906020019080838360005b838110156100e65780820151818401526020810190506100cb565b50505050905090810190601f1680156101135780820380516001836020036101000a031916815260200191505b509250505060405180910390f35b341561012c57600080fd5b6101346103c2565b604051808273ffffffffffffffffffffffffffffffffffffffff1673ffffffffffffffffffffffffffffffffffffffff16815260200191505060405180910390f35b341561018157600080fd5b6101ba600480803573ffffffffffffffffffffffffffffffffffffffff1690602001909190803561ffff169060200190919050506103ec565b005b34156101c757600080fd5b610236600480803573ffffffffffffffffffffffffffffffffffffffff1690602001909190803590602001908201803590602001908080601f016020809104026020016040519081016040528093929190818152602001838380828437820191505050505050919050506104d8565b005b341561024357600080fd5b61024b6105d2565b604051808215151515815260200191505060405180910390f35b341561027057600080fd5b6102786105e9565b604051808273ffffffffffffffffffffffffffffffffffffffff1673ffffffffffffffffffffffffffffffffffffffff16815260200191505060405180910390f35b34156102c557600080fd5b6102cd610697565b604051808273ffffffffffffffffffffffffffffffffffffffff1673ffffffffffffffffffffffffffffffffffffffff16815260200191505060405180910390f35b341561031a57600080fd5b6103226106bd565b005b60008054600181600116156101000203166002900480601f0160208091040260200160405190810160405280929190818152602001828054600181600116156101000203166002900480156103ba5780601f1061038f576101008083540402835291602001916103ba565b820191906000526020600020905b81548152906001019060200180831161039d57829003601f168201915b505050505081565b6000600160009054906101000a900473ffffffffffffffffffffffffffffffffffffffff16905090565b60006103f66105e9565b73ffffffffffffffffffffffffffffffffffffffff1611151561041857600080fd5b600160149054906101000a900460ff16151561043357600080fd5b6000600160146101000a81548160ff0219169083151502179055508173ffffffffffffffffffffffffffffffffffffffff163373ffffffffffffffffffffffffffffffffffffffff167f2eab21b4994a179642a6d9aadb1f0d2b150e13e08585720cefe3830a2e98aa2383604051808261ffff1661ffff16815260200191505060405180910390a3600160149054906101000a900460ff161515156104d457fe5b5050565b60006104e26105e9565b73ffffffffffffffffffffffffffffffffffffffff1611151561050457600080fd5b8173ffffffffffffffffffffffffffffffffffffffff163373ffffffffffffffffffffffffffffffffffffffff167f082bd4d5f0003750f5e22c5617c7938787365304979f993cd153485093ee6cf3836040518080602001828103825283818151815260200191508051906020019080838360005b83811015610594578082015181840152602081019050610579565b50505050905090810190601f1680156105c15780820380516001836020036101000a031916815260200191505b509250505060405180910390a35050565b6000600160149054906101000a900460ff16905090565b6000806000600160009054906101000a900473ffffffffffffffffffffffffffffffffffffffff1691508173ffffffffffffffffffffffffffffffffffffffff16630b06e2c76040518163ffffffff167c0100000000000000000000000000000000000000000000000000000000028152600401602060405180830381600087803b151561067657600080fd5b5af1151561068357600080fd5b505050604051805190509050809250505090565b600160009054906101000a900473ffffffffffffffffffffffffffffffffffffffff1681565b600160149054906101000a900460ff161515156106d957600080fd5b60018060146101000a81548160ff021916908315150217905550600160149054906101000a900460ff16151561070b57fe5b5600a165627a7a723058206e1b39857898d15392cf9e8b195df335f4305ed0455f40f480039186a55b2e140029",
  "source": "pragma solidity ^0.4.0;\n\nimport {IoTCoin} from \"./IoTCoin.sol\";\n\n\n/// @title IoTCamera\ncontract IoTCamera {//is IoTCoin {\n    /*\n    * @title IoTCamera\n    * @author Austin Hester\n    * @notice Developed for Camera contract.\n    * @dev This line is for developers only\n    */\n\n    string public name = \"IoTCamera\";\n    address public coinAddress;\n    bool public isAvailable = false;\n\n    // Event which Edge server is watching\n    event OpenServer(address indexed _from, address indexed _to,\n                        uint16 _port);\n\n    // Event which IoT device (pi) is watching after sending a request\n    event OpenStream(address indexed _from, address indexed _to,\n                        string _ip);\n\n    function IoTCamera(address iotCoin) public {\n        // Best practice here, or\n        // anywhere changes are made to state,\n        // is to follow \"checks-effects-interactions\" pattern,\n        // as well as to follow up with an assertion that\n        // the intended effect was applied.\n        require(msg.sender != 0x0);                  // The Check\n        //balance[msg.sender] = totalSupply;            // The Effect\n        isAvailable = true;\n        coinAddress = iotCoin;\n        assert(isAvailable);   // Be Assertive.\n        //assert(coinAddress == iotCoin);   // Be Assertive.\n    }\n\n    function isAvailable() public view returns (bool) {\n        return isAvailable;\n    }\n\n    function openServer(\n        address _to,\n        uint16 _port\n    ) public {\n        require(getServerAddress() > 0x0);\n        require(isAvailable);\n        isAvailable = false;\n        emit OpenServer(msg.sender, _to, _port);\n        assert(!isAvailable);\n    } \n\n    function openStream(\n        address _to,\n        string _ip \n    ) public {\n        require(getServerAddress() > 0x0);\n        emit OpenStream(msg.sender, _to, _ip);\n    } \n\n    function closeServer() public {\n        require(!isAvailable);\n        isAvailable = true;\n        assert(isAvailable);   // Be Assertive.\n    }\n\n    function getServerAddress() public view returns (address) {\n        IoTCoin ic = IoTCoin(coinAddress);\n        //uint256 bal = ic.getBalance(msg.sender);\n        address edge = ic.getEdgeServer();\n        //ic.transfer(ic.getEdgeServer(), 10);\n        return edge;\n    }\n\n    function getCoinAddress() public view returns (address) {\n        return coinAddress;\n    }\n\n}",
  "sourcePath": "/home/austin/IoTContracts/IoTCoin/contracts/IoTCamera.sol",
  "compiler": {
    "name": "solc",
    "version": "0.4.21+commit.dfe3193c.Emscripten.clang"
  },
  "schemaVersion": "2.0.0",
  "updatedAt": "2018-04-20T01:08:49.331Z"
}