{
  "contractName": "IoTCoin",
  "abi": [
    {
      "constant": true,
      "inputs": [],
      "name": "name",
      "outputs": [
        {
          "name": "",
          "type": "string"
        }
      ],
      "payable": false,
      "stateMutability": "view",
      "type": "function"
    },
    {
      "constant": true,
      "inputs": [],
      "name": "totalSupply",
      "outputs": [
        {
          "name": "",
          "type": "uint256"
        }
      ],
      "payable": false,
      "stateMutability": "view",
      "type": "function"
    },
    {
      "constant": true,
      "inputs": [],
      "name": "decimals",
      "outputs": [
        {
          "name": "",
          "type": "uint8"
        }
      ],
      "payable": false,
      "stateMutability": "view",
      "type": "function"
    },
    {
      "constant": true,
      "inputs": [],
      "name": "eS",
      "outputs": [
        {
          "name": "",
          "type": "address"
        }
      ],
      "payable": false,
      "stateMutability": "view",
      "type": "function"
    },
    {
      "constant": true,
      "inputs": [],
      "name": "symbol",
      "outputs": [
        {
          "name": "",
          "type": "string"
        }
      ],
      "payable": false,
      "stateMutability": "view",
      "type": "function"
    },
    {
      "constant": true,
      "inputs": [
        {
          "name": "",
          "type": "address"
        }
      ],
      "name": "balance",
      "outputs": [
        {
          "name": "",
          "type": "uint256"
        }
      ],
      "payable": false,
      "stateMutability": "view",
      "type": "function"
    },
    {
      "inputs": [
        {
          "name": "initialSupply",
          "type": "uint256"
        }
      ],
      "payable": false,
      "stateMutability": "nonpayable",
      "type": "constructor"
    },
    {
      "anonymous": false,
      "inputs": [
        {
          "indexed": false,
          "name": "_to",
          "type": "address"
        },
        {
          "indexed": false,
          "name": "_value",
          "type": "uint256"
        }
      ],
      "name": "Transfer",
      "type": "event"
    },
    {
      "constant": true,
      "inputs": [
        {
          "name": "_of",
          "type": "address"
        }
      ],
      "name": "getBalance",
      "outputs": [
        {
          "name": "_balance",
          "type": "uint256"
        }
      ],
      "payable": false,
      "stateMutability": "view",
      "type": "function"
    },
    {
      "constant": true,
      "inputs": [],
      "name": "getEdgeServer",
      "outputs": [
        {
          "name": "",
          "type": "address"
        }
      ],
      "payable": false,
      "stateMutability": "view",
      "type": "function"
    },
    {
      "constant": false,
      "inputs": [
        {
          "name": "_to",
          "type": "address"
        },
        {
          "name": "_value",
          "type": "uint256"
        }
      ],
      "name": "transfer",
      "outputs": [],
      "payable": false,
      "stateMutability": "nonpayable",
      "type": "function"
    }
  ],
  "bytecode": "0x60606040526040805190810160405280600781526020017f496f54436f696e000000000000000000000000000000000000000000000000008152506000908051906020019061004f929190610228565b506040805190810160405280600481526020017f4954434e000000000000000000000000000000000000000000000000000000008152506001908051906020019061009b929190610228565b506012600260006101000a81548160ff021916908360ff1602179055506000600460006101000a81548173ffffffffffffffffffffffffffffffffffffffff021916908373ffffffffffffffffffffffffffffffffffffffff160217905550341561010557600080fd5b604051602080610d64833981016040528080519060200190919050506000811015151561013157600080fd5b600260009054906101000a900460ff1660ff16600a0a8102600381905550600354600560003373ffffffffffffffffffffffffffffffffffffffff1673ffffffffffffffffffffffffffffffffffffffff1681526020019081526020016000208190555033600460006101000a81548173ffffffffffffffffffffffffffffffffffffffff021916908373ffffffffffffffffffffffffffffffffffffffff160217905550600354600560003373ffffffffffffffffffffffffffffffffffffffff1673ffffffffffffffffffffffffffffffffffffffff1681526020019081526020016000205414151561022257fe5b506102cd565b828054600181600116156101000203166002900490600052602060002090601f016020900481019282601f1061026957805160ff1916838001178555610297565b82800160010185558215610297579182015b8281111561029657825182559160200191906001019061027b565b5b5090506102a491906102a8565b5090565b6102ca91905b808211156102c65760008160009055506001016102ae565b5090565b90565b610a88806102dc6000396000f300606060405260043610610099576000357c0100000000000000000000000000000000000000000000000000000000900463ffffffff16806306fdde031461009e5780630b06e2c71461012c57806318160ddd14610181578063313ce567146101aa5780637eb7a2d3146101d957806395d89b411461022e578063a9059cbb146102bc578063e3d670d7146102fe578063f8b2cb4f1461034b575b600080fd5b34156100a957600080fd5b6100b1610398565b6040518080602001828103825283818151815260200191508051906020019080838360005b838110156100f15780820151818401526020810190506100d6565b50505050905090810190601f16801561011e5780820380516001836020036101000a031916815260200191505b509250505060405180910390f35b341561013757600080fd5b61013f610436565b604051808273ffffffffffffffffffffffffffffffffffffffff1673ffffffffffffffffffffffffffffffffffffffff16815260200191505060405180910390f35b341561018c57600080fd5b610194610460565b6040518082815260200191505060405180910390f35b34156101b557600080fd5b6101bd610466565b604051808260ff1660ff16815260200191505060405180910390f35b34156101e457600080fd5b6101ec610479565b604051808273ffffffffffffffffffffffffffffffffffffffff1673ffffffffffffffffffffffffffffffffffffffff16815260200191505060405180910390f35b341561023957600080fd5b61024161049f565b6040518080602001828103825283818151815260200191508051906020019080838360005b83811015610281578082015181840152602081019050610266565b50505050905090810190601f1680156102ae5780820380516001836020036101000a031916815260200191505b509250505060405180910390f35b34156102c757600080fd5b6102fc600480803573ffffffffffffffffffffffffffffffffffffffff1690602001909190803590602001909190505061053d565b005b341561030957600080fd5b610335600480803573ffffffffffffffffffffffffffffffffffffffff1690602001909190505061062a565b6040518082815260200191505060405180910390f35b341561035657600080fd5b610382600480803573ffffffffffffffffffffffffffffffffffffffff16906020019091905050610642565b6040518082815260200191505060405180910390f35b60008054600181600116156101000203166002900480601f01602080910402602001604051908101604052809291908181526020018280546001816001161561010002031660029004801561042e5780601f106104035761010080835404028352916020019161042e565b820191906000526020600020905b81548152906001019060200180831161041157829003601f168201915b505050505081565b6000600460009054906101000a900473ffffffffffffffffffffffffffffffffffffffff16905090565b60035481565b600260009054906101000a900460ff1681565b600460009054906101000a900473ffffffffffffffffffffffffffffffffffffffff1681565b60018054600181600116156101000203166002900480601f0160208091040260200160405190810160405280929190818152602001828054600181600116156101000203166002900480156105355780601f1061050a57610100808354040283529160200191610535565b820191906000526020600020905b81548152906001019060200180831161051857829003601f168201915b505050505081565b600081600560003373ffffffffffffffffffffffffffffffffffffffff1673ffffffffffffffffffffffffffffffffffffffff1681526020019081526020016000205411151561058c57600080fd5b600560003373ffffffffffffffffffffffffffffffffffffffff1673ffffffffffffffffffffffffffffffffffffffff1681526020019081526020016000205490506105d9338484610740565b818103600560003373ffffffffffffffffffffffffffffffffffffffff1673ffffffffffffffffffffffffffffffffffffffff1681526020019081526020016000205414151561062557fe5b505050565b60056020528060005260406000206000915090505481565b6000600460009054906101000a900473ffffffffffffffffffffffffffffffffffffffff1673ffffffffffffffffffffffffffffffffffffffff163373ffffffffffffffffffffffffffffffffffffffff161415156106f957600460009054906101000a900473ffffffffffffffffffffffffffffffffffffffff1673ffffffffffffffffffffffffffffffffffffffff168273ffffffffffffffffffffffffffffffffffffffff16141515156106f857600080fd5b5b600560008373ffffffffffffffffffffffffffffffffffffffff1673ffffffffffffffffffffffffffffffffffffffff168152602001908152602001600020549050919050565b6000808373ffffffffffffffffffffffffffffffffffffffff161415151561076757600080fd5b81600560008673ffffffffffffffffffffffffffffffffffffffff1673ffffffffffffffffffffffffffffffffffffffff168152602001908152602001600020541115156107b457600080fd5b600560008473ffffffffffffffffffffffffffffffffffffffff1673ffffffffffffffffffffffffffffffffffffffff1681526020019081526020016000205482600560008673ffffffffffffffffffffffffffffffffffffffff1673ffffffffffffffffffffffffffffffffffffffff16815260200190815260200160002054011015151561084357600080fd5b600560008573ffffffffffffffffffffffffffffffffffffffff1673ffffffffffffffffffffffffffffffffffffffff16815260200190815260200160002054600560008573ffffffffffffffffffffffffffffffffffffffff1673ffffffffffffffffffffffffffffffffffffffff1681526020019081526020016000205401905081600560008673ffffffffffffffffffffffffffffffffffffffff1673ffffffffffffffffffffffffffffffffffffffff1681526020019081526020016000206000828254039250508190555081600560008573ffffffffffffffffffffffffffffffffffffffff1673ffffffffffffffffffffffffffffffffffffffff168152602001908152602001600020600082825401925050819055507f69ca02dd4edd7bf0a4abb9ed3b7af3f14778db5d61921c7dc7cd545266326de28383604051808373ffffffffffffffffffffffffffffffffffffffff1673ffffffffffffffffffffffffffffffffffffffff1681526020018281526020019250505060405180910390a180600560008673ffffffffffffffffffffffffffffffffffffffff1673ffffffffffffffffffffffffffffffffffffffff16815260200190815260200160002054600560008673ffffffffffffffffffffffffffffffffffffffff1673ffffffffffffffffffffffffffffffffffffffff1681526020019081526020016000205401141515610a5657fe5b505050505600a165627a7a723058200db7662946381da86f04b406217554530603769dd9e0a66d8d2c5de926b20b250029",
  "source": "pragma solidity ^0.4.0;\n\n\n/// @title IoTCoin, Essential Control\ncontract IoTCoin {\n    /*\n    * @title IoTCoin, Essential Control\n    * @author Austin Hester\n    * @notice Developed for Camera contract.\n    * @dev This line is for developers only\n    * \n    */\n\n    string public name = \"IoTCoin\";\n    string public symbol = \"ITCN\";\n    uint8 public decimals = 18;\n    uint256 public totalSupply;\n    address public eS = 0x0;\n\n    mapping (address => uint256) public balance;\n\n    // An event that occurs when a transfer happens\n    event Transfer(address _to, uint256 _value);\n\n    function IoTCoin(\n        uint256 initialSupply\n    ) public {\n        // Best practice here, or\n        // anywhere changes are made to state,\n        // is to follow \"checks-effects-interactions\" pattern,\n        // as well as to follow up with an assertion that\n        // the intended effect was applied.\n        require(initialSupply >= 0);                  // The Check\n        totalSupply = initialSupply * 10 ** uint256(decimals);\n        balance[msg.sender] = totalSupply;            // The Effect\n        eS = msg.sender;\n        //                                            // There is no interaction here\n        assert(balance[msg.sender] == totalSupply);   // Be Assertive.\n    }\n\n    /// Retrieve the IoTCoin balance of an address\n    /// @param _of address \n    /// @return return _balance\n    function getBalance(\n        address _of\n    ) public view returns (uint256 _balance) {\n        // This is a 'view' function, which means\n        // it only reads from the network.\n        // We are not making any changes so no need to\n        // require or assert because there are no changes being\n        // made that may need to be reverted.\n        if (msg.sender != eS) \n            require(_of != eS);\n        return balance[_of];\n    }\n\n    function getEdgeServer() public view returns (address) {\n        return eS;\n    }\n    \n    /**\n     * Transfer tokens\n     *\n     * Send _value IoTCoin to _to from your account\n     *\n     * @param _to Address of recipient\n     * @param _value the amount of IoTCoin\n     */\n    function transfer(address _to, uint256 _value) public {\n        require(balance[msg.sender] > _value);\n        uint256 prevBalance = balance[msg.sender];\n        _transfer(msg.sender, _to, _value);\n        assert(balance[msg.sender] == prevBalance - _value);\n    }\n\n    /// Transfer IoTCoin to _to of amount _value\n    // These triple comments provide info about the function following\n    /// @dev Only devs will see this\n    /// @param _to address\n    /// @param _value uint256 \n    /// @return does not return a value\n    function _transfer(\n        address _from,\n        address _to,\n        uint256 _value\n    ) private {\n        require(_to != 0x0);\n        require(balance[_from] > _value);\n        // check for overflow in _to's account\n        require(balance[_to] + _value >= balance[_to]);\n        uint256 previousBalances = balance[_to] + balance[_from];\n        // effects\n        balance[_from] -= _value;\n        balance[_to] += _value;\n        // interaction\n        emit Transfer(_to, _value);\n        // assertion\n        assert(balance[_to] + balance[_from] == previousBalances);\n    }\n\n}",
  "sourcePath": "/home/austin/IoTContracts/IoTCoin/contracts/IoTCoin.sol",
  "compiler": {
    "name": "solc",
    "version": "0.4.21+commit.dfe3193c.Emscripten.clang"
  },
  "schemaVersion": "2.0.0",
  "updatedAt": "2018-04-20T01:08:49.328Z"
}