{
  "contractName": "IoTCamera",
  "abi": [
    {
      "constant": true,
      "inputs": [],
      "name": "name",
      "outputs": [
        {
          "name": "",
          "type": "string"
        }
      ],
      "payable": false,
      "stateMutability": "view",
      "type": "function"
    },
    {
      "constant": true,
      "inputs": [],
      "name": "coinAddress",
      "outputs": [
        {
          "name": "",
          "type": "address"
        }
      ],
      "payable": false,
      "stateMutability": "view",
      "type": "function"
    },
    {
      "inputs": [
        {
          "name": "iotCoin",
          "type": "address"
        }
      ],
      "payable": false,
      "stateMutability": "nonpayable",
      "type": "constructor"
    },
    {
      "anonymous": false,
      "inputs": [
        {
          "indexed": true,
          "name": "_from",
          "type": "address"
        },
        {
          "indexed": true,
          "name": "_to",
          "type": "address"
        },
        {
          "indexed": false,
          "name": "_port",
          "type": "uint8"
        }
      ],
      "name": "OpenServer",
      "type": "event"
    },
    {
      "anonymous": false,
      "inputs": [
        {
          "indexed": true,
          "name": "_from",
          "type": "address"
        },
        {
          "indexed": true,
          "name": "_to",
          "type": "address"
        },
        {
          "indexed": false,
          "name": "_ip",
          "type": "string"
        }
      ],
      "name": "OpenStream",
      "type": "event"
    },
    {
      "constant": true,
      "inputs": [],
      "name": "isAvailable",
      "outputs": [
        {
          "name": "",
          "type": "bool"
        }
      ],
      "payable": false,
      "stateMutability": "view",
      "type": "function"
    },
    {
      "constant": false,
      "inputs": [
        {
          "name": "_to",
          "type": "address"
        },
        {
          "name": "_port",
          "type": "uint8"
        }
      ],
      "name": "openServer",
      "outputs": [],
      "payable": false,
      "stateMutability": "nonpayable",
      "type": "function"
    },
    {
      "constant": false,
      "inputs": [
        {
          "name": "_to",
          "type": "address"
        },
        {
          "name": "_ip",
          "type": "string"
        }
      ],
      "name": "openStream",
      "outputs": [],
      "payable": false,
      "stateMutability": "nonpayable",
      "type": "function"
    },
    {
      "constant": false,
      "inputs": [],
      "name": "closeStream",
      "outputs": [],
      "payable": false,
      "stateMutability": "nonpayable",
      "type": "function"
    },
    {
      "constant": true,
      "inputs": [],
      "name": "getServerAddress",
      "outputs": [
        {
          "name": "",
          "type": "address"
        }
      ],
      "payable": false,
      "stateMutability": "view",
      "type": "function"
    },
    {
      "constant": true,
      "inputs": [],
      "name": "getCoinAddress",
      "outputs": [
        {
          "name": "",
          "type": "address"
        }
      ],
      "payable": false,
      "stateMutability": "view",
      "type": "function"
    }
  ],
  "bytecode": "0x60606040526040805190810160405280600981526020017f496f5443616d65726100000000000000000000000000000000000000000000008152506000908051906020019061004f929190610131565b506000600160146101000a81548160ff021916908315150217905550341561007657600080fd5b60405160208061091b8339810160405280805190602001909190505060003373ffffffffffffffffffffffffffffffffffffffff16141515156100b857600080fd5b60018060146101000a81548160ff02191690831515021790555080600160006101000a81548173ffffffffffffffffffffffffffffffffffffffff021916908373ffffffffffffffffffffffffffffffffffffffff160217905550600160149054906101000a900460ff16151561012b57fe5b506101d6565b828054600181600116156101000203166002900490600052602060002090601f016020900481019282601f1061017257805160ff19168380011785556101a0565b828001600101855582156101a0579182015b8281111561019f578251825591602001919060010190610184565b5b5090506101ad91906101b1565b5090565b6101d391905b808211156101cf5760008160009055506001016101b7565b5090565b90565b610736806101e56000396000f30060606040526004361061008e576000357c0100000000000000000000000000000000000000000000000000000000900463ffffffff16806306fdde0314610093578063400430681461012157806377890e2314610176578063856c71dd146101f25780639dad93821461021f5780639dfe310614610234578063c7acae2e14610279578063fdc61dd1146102ce575b600080fd5b341561009e57600080fd5b6100a6610323565b6040518080602001828103825283818151815260200191508051906020019080838360005b838110156100e65780820151818401526020810190506100cb565b50505050905090810190601f1680156101135780820380516001836020036101000a031916815260200191505b509250505060405180910390f35b341561012c57600080fd5b6101346103c1565b604051808273ffffffffffffffffffffffffffffffffffffffff1673ffffffffffffffffffffffffffffffffffffffff16815260200191505060405180910390f35b341561018157600080fd5b6101f0600480803573ffffffffffffffffffffffffffffffffffffffff1690602001909190803590602001908201803590602001908080601f016020809104026020016040519081016040528093929190818152602001838380828437820191505050505050919050506103eb565b005b34156101fd57600080fd5b6102056104e5565b604051808215151515815260200191505060405180910390f35b341561022a57600080fd5b6102326104fc565b005b341561023f57600080fd5b610277600480803573ffffffffffffffffffffffffffffffffffffffff1690602001909190803560ff1690602001909190505061054c565b005b341561028457600080fd5b61028c610636565b604051808273ffffffffffffffffffffffffffffffffffffffff1673ffffffffffffffffffffffffffffffffffffffff16815260200191505060405180910390f35b34156102d957600080fd5b6102e16106e4565b604051808273ffffffffffffffffffffffffffffffffffffffff1673ffffffffffffffffffffffffffffffffffffffff16815260200191505060405180910390f35b60008054600181600116156101000203166002900480601f0160208091040260200160405190810160405280929190818152602001828054600181600116156101000203166002900480156103b95780601f1061038e576101008083540402835291602001916103b9565b820191906000526020600020905b81548152906001019060200180831161039c57829003601f168201915b505050505081565b6000600160009054906101000a900473ffffffffffffffffffffffffffffffffffffffff16905090565b60006103f5610636565b73ffffffffffffffffffffffffffffffffffffffff1611151561041757600080fd5b8173ffffffffffffffffffffffffffffffffffffffff163373ffffffffffffffffffffffffffffffffffffffff167f082bd4d5f0003750f5e22c5617c7938787365304979f993cd153485093ee6cf3836040518080602001828103825283818151815260200191508051906020019080838360005b838110156104a757808201518184015260208101905061048c565b50505050905090810190601f1680156104d45780820380516001836020036101000a031916815260200191505b509250505060405180910390a35050565b6000600160149054906101000a900460ff16905090565b600160149054906101000a900460ff1615151561051857600080fd5b60018060146101000a81548160ff021916908315150217905550600160149054906101000a900460ff16151561054a57fe5b565b6000610556610636565b73ffffffffffffffffffffffffffffffffffffffff1611151561057857600080fd5b600160149054906101000a900460ff16151561059357600080fd5b6000600160146101000a81548160ff0219169083151502179055508173ffffffffffffffffffffffffffffffffffffffff163373ffffffffffffffffffffffffffffffffffffffff167fb816ae0668d30f4d032590ad172a13c190b9f4854f28a3be123933396e42f59783604051808260ff1660ff16815260200191505060405180910390a3600160149054906101000a900460ff1615151561063257fe5b5050565b6000806000600160009054906101000a900473ffffffffffffffffffffffffffffffffffffffff1691508173ffffffffffffffffffffffffffffffffffffffff16630b06e2c76040518163ffffffff167c0100000000000000000000000000000000000000000000000000000000028152600401602060405180830381600087803b15156106c357600080fd5b5af115156106d057600080fd5b505050604051805190509050809250505090565b600160009054906101000a900473ffffffffffffffffffffffffffffffffffffffff16815600a165627a7a72305820e9b6d84841abcdd0863794a1896a50976f7b81834139ee71a63b0a9d4de3bae40029",
  "source": "pragma solidity ^0.4.0;\n\nimport {IoTCoin} from \"./IoTCoin.sol\";\n\n\n/// @title IoTCamera\ncontract IoTCamera {//is IoTCoin {\n    /*\n    * @title IoTCamera\n    * @author Austin Hester\n    * @notice Developed for Camera contract.\n    * @dev This line is for developers only\n    */\n\n    string public name = \"IoTCamera\";\n    address public coinAddress;\n    bool public isAvailable = false;\n\n    // Event which Edge server is watching\n    event OpenServer(address indexed _from, address indexed _to,\n                        uint8 _port);\n\n    // Event which IoT device (pi) is watching after sending a request\n    event OpenStream(address indexed _from, address indexed _to,\n                        string _ip);\n\n    function IoTCamera(address iotCoin) public {\n        // Best practice here, or\n        // anywhere changes are made to state,\n        // is to follow \"checks-effects-interactions\" pattern,\n        // as well as to follow up with an assertion that\n        // the intended effect was applied.\n        require(msg.sender != 0x0);                  // The Check\n        //balance[msg.sender] = totalSupply;            // The Effect\n        isAvailable = true;\n        coinAddress = iotCoin;\n        assert(isAvailable);   // Be Assertive.\n        //assert(coinAddress == iotCoin);   // Be Assertive.\n    }\n\n    function isAvailable() public view returns (bool) {\n        return isAvailable;\n    }\n\n    function openServer(\n        address _to,\n        uint8 _port\n    ) public {\n        require(getServerAddress() > 0x0);\n        require(isAvailable);\n        isAvailable = false;\n        emit OpenServer(msg.sender, _to, _port);\n        assert(!isAvailable);\n    } \n\n    function openStream(\n        address _to,\n        string _ip \n    ) public {\n        require(getServerAddress() > 0x0);\n        emit OpenStream(msg.sender, _to, _ip);\n    } \n\n    function closeStream() public {\n        require(!isAvailable);\n        isAvailable = true;\n        assert(isAvailable);   // Be Assertive.\n    }\n\n    function getServerAddress() public view returns (address) {\n        IoTCoin ic = IoTCoin(coinAddress);\n        //uint256 bal = ic.getBalance(msg.sender);\n        address edge = ic.getEdgeServer();\n        //ic.transfer(ic.getEdgeServer(), 10);\n        return edge;\n    }\n\n    function getCoinAddress() public view returns (address) {\n        return coinAddress;\n    }\n\n}",
  "sourcePath": "/home/austin/IoTContracts/IoTCoin/contracts/IoTCamera.sol",
  "compiler": {
    "name": "solc",
    "version": "0.4.21+commit.dfe3193c.Emscripten.clang"
  },
  "schemaVersion": "2.0.0",
  "updatedAt": "2018-04-19T03:36:30.269Z"
}